[
  {
    "request": {
      "body": "{\"params\":[\"pending\",true],\"method\":\"eth_getBlockByNumber\",\"jsonrpc\":\"2.0\",\"id\":23}",
      "headers": {
        "Content-Type": "application/json"
      },
      "method": "post",
      "options": [],
      "request_body": "",
      "url": "http://3.85.253.242:8545"
    },
    "response": {
      "binary": false,
      "body": "{\"jsonrpc\":\"2.0\",\"result\":{\"author\":\"0xe2ac1c6843a33f81ae4935e5ef1277a392990381\",\"difficulty\":\"0xfffffffffffffffffffffffffffffffe\",\"extraData\":\"0xd5830109028650617269747986312e32332e30826c69\",\"gasLimit\":\"0x7a1200\",\"gasUsed\":\"0x4bfec\",\"hash\":\"0x1c04f9d4155107dec88269abc74701a98edec9275051557e0666a95731d72be8\",\"logsBloom\":\"0x00000000000000000000000000000000000000000000000000000400000000000000000000000000000000000000000000200000000000000000000000000000000000000000000000000000000000000200000000000000000000000000000000000000000000000000000000000000000000000000000000000000002000000000000000000000200000000000000000000000000000000000000002000000000000000000004000000000000000000000000000000000000000000000000000000000000000000000000000000000000000000000000000000000000000000000000000000000000080000000000000010000000000000000000000000000\",\"miner\":\"0xe2ac1c6843a33f81ae4935e5ef1277a392990381\",\"number\":\"0xe90e0\",\"parentHash\":\"0x360420d92ddfe569c7358c858d7d357ff4fe9c59ff47f316c6877ed23e40bbed\",\"receiptsRoot\":\"0xd874248bcec762968fe2dfa4d1681d0a55e6d89bb493289a2cf5a7ce4b883450\",\"sealFields\":[\"0x84121ac864\",\"0xb841feac728e0cdd706bf9394ce8282e457d36646937da746ccd2311a889cb3eb6d221d8333fdb0b1e78c1cfde900f896c5bd799329cae25056dceaca2cc15f31a3b00\"],\"sha3Uncles\":\"0x1dcc4de8dec75d7aab85b567b6ccd41ad312451b948a7413f0a142fd40d49347\",\"signature\":\"feac728e0cdd706bf9394ce8282e457d36646937da746ccd2311a889cb3eb6d221d8333fdb0b1e78c1cfde900f896c5bd799329cae25056dceaca2cc15f31a3b00\",\"size\":\"0x778\",\"stateRoot\":\"0xefbd76d4d3faf2315673d4bc11bd8da92e232aebbcdc13247d306a63c28feeca\",\"step\":\"303745124\",\"timestamp\":\"0x5a85e9f4\",\"totalDifficulty\":\"0xe90dfffffffffffffffffffffffffedd8a6bc\",\"transactions\":[{\"blockHash\":\"0x1c04f9d4155107dec88269abc74701a98edec9275051557e0666a95731d72be8\",\"blockNumber\":\"0xe90e0\",\"chainId\":null,\"condition\":null,\"creates\":null,\"from\":\"0x4fb736b808f7b8f71fa548820d77ba2acbc0b533\",\"gas\":\"0x36d14\",\"gasPrice\":\"0x12a05f200\",\"hash\":\"0xd34eefcff9217dfaeb0b5842b2117e9b555ca9cd8d9ceda72f83c3ce19a132a7\",\"input\":\"0x53656e74206f6e2031353138373235363132303135\",\"nonce\":\"0x1e1a4\",\"publicKey\":\"0x163e1a1ada6822b356f9c0ef068833bf78042acd1cb6aaa210a5df206530ab7463baff188798e4a751a1e3a547d6646e620e8b10fda67ddba7d78db8f75a9e5e\",\"r\":\"0x99b573c1526560eda17553f306fca9ca443b8b8ce881cfcc4c2eea50c48450d2\",\"raw\":\"0xf8838301e1a485012a05f20083036d149423fe49a4adbdbc3c07fb5ab6f951475eee73a4048604dd398faa009553656e74206f6e20313531383732353631323031351ba099b573c1526560eda17553f306fca9ca443b8b8ce881cfcc4c2eea50c48450d2a04ca86ff2af8cb7b82fb622caeb1976313a1238dd0059e2c85739713277a6971d\",\"s\":\"0x4ca86ff2af8cb7b82fb622caeb1976313a1238dd0059e2c85739713277a6971d\",\"standardV\":\"0x0\",\"to\":\"0x23fe49a4adbdbc3c07fb5ab6f951475eee73a404\",\"transactionIndex\":\"0x0\",\"v\":\"0x1b\",\"value\":\"0x4dd398faa00\"},{\"blockHash\":\"0x1c04f9d4155107dec88269abc74701a98edec9275051557e0666a95731d72be8\",\"blockNumber\":\"0xe90e0\",\"chainId\":null,\"condition\":null,\"creates\":\"0x875854d506626e0fa34427cb8e945dd1660adf02\",\"from\":\"0x5bb4f6b9a958418599e563f78548d4657450d14c\",\"gas\":\"0x37b2d\",\"gasPrice\":\"0x12a05f200\",\"hash\":\"0x744dae74105cb6cc3d5dd351515867300d39ce8fbc7e31f722e0a2869e2190ce\",\"input\":\"0x6060604052341561000f57600080fd5b7fb94ae47ec9f4248692e2ecf9740b67ab493f3dcc8452bedc7d9cd911c28d1ca5426040518082815260200191505060405180910390a1609e806100546000396000f300606060405260043610603f576000357c0100000000000000000000000000000000000000000000000000000000900463ffffffff168063557ed1ba146044575b600080fd5b3415604e57600080fd5b6054606a565b6040518082815260200191505060405180910390f35b6000429050905600a165627a7a7230582053883c0c39da080adc15a91094921659c200b3bb60aed9e49b79b0274da3f4010029\",\"nonce\":\"0x1ebfa\",\"publicKey\":\"0x545b7934a886f55740de8e2052524df98205505e91b4a96b486c4a2e65fec645281bc241d525485d9f74ad14ca82f7e3ce90ff1b5f0225d1e9b57732466a3514\",\"r\":\"0x272d980de6ce60742a61b5d7e4e2475dd9f534afebf9fbee08daeb44c8a1dfdc\",\"raw\":\"0xf901478301ebfa85012a05f20083037b2d8080b8f26060604052341561000f57600080fd5b7fb94ae47ec9f4248692e2ecf9740b67ab493f3dcc8452bedc7d9cd911c28d1ca5426040518082815260200191505060405180910390a1609e806100546000396000f300606060405260043610603f576000357c0100000000000000000000000000000000000000000000000000000000900463ffffffff168063557ed1ba146044575b600080fd5b3415604e57600080fd5b6054606a565b6040518082815260200191505060405180910390f35b6000429050905600a165627a7a7230582053883c0c39da080adc15a91094921659c200b3bb60aed9e49b79b0274da3f40100291ca0272d980de6ce60742a61b5d7e4e2475dd9f534afebf9fbee08daeb44c8a1dfdca042526b8c7a246d960780692d8eca275b94fd2266fb68f338b4fbf4f179c9b62e\",\"s\":\"0x42526b8c7a246d960780692d8eca275b94fd2266fb68f338b4fbf4f179c9b62e\",\"standardV\":\"0x1\",\"to\":null,\"transactionIndex\":\"0x1\",\"v\":\"0x1c\",\"value\":\"0x0\"},{\"blockHash\":\"0x1c04f9d4155107dec88269abc74701a98edec9275051557e0666a95731d72be8\",\"blockNumber\":\"0xe90e0\",\"chainId\":null,\"condition\":null,\"creates\":null,\"from\":\"0x394a5c6bba097c618859e931299dfd5941b7df18\",\"gas\":\"0x3885c\",\"gasPrice\":\"0x12a05f200\",\"hash\":\"0xc87658f574adef1928e7ef0490f70e663a327a155568000eb10bb678e1f04b23\",\"input\":\"0x53656e74206f6e2031353138373235363132303130\",\"nonce\":\"0x1e67d\",\"publicKey\":\"0xafd732bb168ff6bc57aa0c2e959d90b3377b8d6249c34a4535a06be5142166ff21d3d97523bb37f896d047f1f4478a8525f82994c7616bc567499d2e72981e0b\",\"r\":\"0x86ae288b0b18e055967ba5224d1a0605ac0df0ad942600d25862d853b3a6e39c\",\"raw\":\"0xf8848301e67d85012a05f2008303885c94cdc2c999954f43266d59637a32f942d35cb22c0d871e1a3d53a578009553656e74206f6e20313531383732353631323031301ca086ae288b0b18e055967ba5224d1a0605ac0df0ad942600d25862d853b3a6e39ca03f8e93eaf2a77e27f3433552a9a87fab3b915e95e771448ae8f2aa976465239a\",\"s\":\"0x3f8e93eaf2a77e27f3433552a9a87fab3b915e95e771448ae8f2aa976465239a\",\"standardV\":\"0x1\",\"to\":\"0xcdc2c999954f43266d59637a32f942d35cb22c0d\",\"transactionIndex\":\"0x2\",\"v\":\"0x1c\",\"value\":\"0x1e1a3d53a57800\"},{\"blockHash\":\"0x1c04f9d4155107dec88269abc74701a98edec9275051557e0666a95731d72be8\",\"blockNumber\":\"0xe90e0\",\"chainId\":null,\"condition\":null,\"creates\":null,\"from\":\"0xc0587d691fc93236a807f37e262e79a36d31a928\",\"gas\":\"0x38885\",\"gasPrice\":\"0x12a05f200\",\"hash\":\"0xe7ad5c8596221f419e880b1e6fefd346a477f336a4ad48b51cd1bffd3ce7e39d\",\"input\":\"0x53656e74206f6e2031353138373235363132303035\",\"nonce\":\"0x1ea08\",\"publicKey\":\"0x31e91de20caf7633473589aeebc4aa8b079a076dd63b7267bfa43a3fb5c4edf79e34b751b85924b2f336ca9a41aa8069437ca268edd1e3201b7a29677077fe48\",\"r\":\"0xdec00c61c8983f883792937f72cc7cd628b61fa1c1af439dc54454f42317045e\",\"raw\":\"0xf8848301ea0885012a05f20083038885945a83e00dc5fe50926e9f8847f9ddff58d7c27e86872bff2eb0e600009553656e74206f6e20313531383732353631323030351ba0dec00c61c8983f883792937f72cc7cd628b61fa1c1af439dc54454f42317045ea0627e2da7d1913887b44496467d9e07b26f726e221ff037fd22a86838d7ef8c5f\",\"s\":\"0x627e2da7d1913887b44496467d9e07b26f726e221ff037fd22a86838d7ef8c5f\",\"standardV\":\"0x0\",\"to\":\"0x5a83e00dc5fe50926e9f8847f9ddff58d7c27e86\",\"transactionIndex\":\"0x3\",\"v\":\"0x1b\",\"value\":\"0x2bff2eb0e60000\"},{\"blockHash\":\"0x1c04f9d4155107dec88269abc74701a98edec9275051557e0666a95731d72be8\",\"blockNumber\":\"0xe90e0\",\"chainId\":null,\"condition\":null,\"creates\":null,\"from\":\"0xaff03c54ce20fc2a66f9a9dfd428b4cc0b37b654\",\"gas\":\"0x376dc\",\"gasPrice\":\"0x12a05f200\",\"hash\":\"0x712b90e22718df859b2959bffcd5a26ac026ff0b21dbced36c2681318125927d\",\"input\":\"0x53656e74206f6e2031353138373235363132303132\",\"nonce\":\"0x1e39d\",\"publicKey\":\"0xf7507ade1cd54f3624856c9304ba21bd7dadbd46b2baf22077cea51b223c1a1c3cb3354ae4ae8463025c39bae1c59dbf1b4dd64d245dc1ecec06409ba626218b\",\"r\":\"0x210e4add9d93f0c5b34ee1b14b0313defcfaaff6843f5f1ec2141c8dcb9ea7a\",\"raw\":\"0xf8838301e39d85012a05f200830376dc94b459e1fd904548c079f72e2d72ecf0c34b7f3c4b8625fe446e4c009553656e74206f6e20313531383732353631323031321ba00210e4add9d93f0c5b34ee1b14b0313defcfaaff6843f5f1ec2141c8dcb9ea7aa043bb59f3a351e6253b6688bdb09a79c4fdbe31b3701727d1b53dc3f06b052fe9\",\"s\":\"0x43bb59f3a351e6253b6688bdb09a79c4fdbe31b3701727d1b53dc3f06b052fe9\",\"standardV\":\"0x0\",\"to\":\"0xb459e1fd904548c079f72e2d72ecf0c34b7f3c4b\",\"transactionIndex\":\"0x4\",\"v\":\"0x1b\",\"value\":\"0x25fe446e4c00\"},{\"blockHash\":\"0x1c04f9d4155107dec88269abc74701a98edec9275051557e0666a95731d72be8\",\"blockNumber\":\"0xe90e0\",\"chainId\":null,\"condition\":null,\"creates\":null,\"from\":\"0xff85fdd566b79bb451989e84714d3540b4f812ac\",\"gas\":\"0x367a8\",\"gasPrice\":\"0x12a05f200\",\"hash\":\"0x9bfa40df19c04d0874e31ddc2fc43ac5e877ffc67e2b23a23794cc2cbc79f009\",\"input\":\"0x53656e74206f6e2031353138373235363137313232\",\"nonce\":\"0x1851b\",\"publicKey\":\"0xe3b3cc63303007534c29a3a9e1a9b988bccfd72b085c26f32b81820af1bf6792f5c63a13ede7f8027ca18d670cc270ac3b9a176c183a903fe4ba6d846fca20c4\",\"r\":\"0xd964f770f23a977fa4e5a08a26cd2279e49c1c0876b17019705d70c894617aa6\",\"raw\":\"0xf8848301851b85012a05f200830367a8944349bb5579700d2a515cfef9cbdb7bc7f881cdd087ff00cd1c0b10009553656e74206f6e20313531383732353631373132321ba0d964f770f23a977fa4e5a08a26cd2279e49c1c0876b17019705d70c894617aa6a054ac20bc53e55bcfe4caaff53ab1694097ca112c5c6d2c5c309b11cd62864cce\",\"s\":\"0x54ac20bc53e55bcfe4caaff53ab1694097ca112c5c6d2c5c309b11cd62864cce\",\"standardV\":\"0x0\",\"to\":\"0x4349bb5579700d2a515cfef9cbdb7bc7f881cdd0\",\"transactionIndex\":\"0x5\",\"v\":\"0x1b\",\"value\":\"0xff00cd1c0b1000\"},{\"blockHash\":\"0x1c04f9d4155107dec88269abc74701a98edec9275051557e0666a95731d72be8\",\"blockNumber\":\"0xe90e0\",\"chainId\":null,\"condition\":null,\"creates\":\"0x8bb42cd24b499f54d8f2904e816abc6b3429f60a\",\"from\":\"0xb8f3bf8b5f882291b084609264edcb6c1074ddfe\",\"gas\":\"0x37039\",\"gasPrice\":\"0x12a05f200\",\"hash\":\"0x2a6d4d9b18f38cbc1fae0aa340e7cb173d9f2b9b1a95af30c8b0401c07e053c9\",\"input\":\"0x6060604052341561000f57600080fd5b7fb94ae47ec9f4248692e2ecf9740b67ab493f3dcc8452bedc7d9cd911c28d1ca5426040518082815260200191505060405180910390a1609e806100546000396000f300606060405260043610603f576000357c0100000000000000000000000000000000000000000000000000000000900463ffffffff168063557ed1ba146044575b600080fd5b3415604e57600080fd5b6054606a565b6040518082815260200191505060405180910390f35b6000429050905600a165627a7a7230582053883c0c39da080adc15a91094921659c200b3bb60aed9e49b79b0274da3f4010029\",\"nonce\":\"0x183d4\",\"publicKey\":\"0x8593a3867f752e86ab6f95c93273bb3cfc4f60584c4ed9b4f025704b5de751e6a066207891344767b810241d8363864dbf45baf480912c8c4449ec187c87dc68\",\"r\":\"0xb5b0e16373fb8471017b6abb5d1c40b48fd7a4620fbf1c6a11a4802a9791367c\",\"raw\":\"0xf90147830183d485012a05f200830370398080b8f26060604052341561000f57600080fd5b7fb94ae47ec9f4248692e2ecf9740b67ab493f3dcc8452bedc7d9cd911c28d1ca5426040518082815260200191505060405180910390a1609e806100546000396000f300606060405260043610603f576000357c0100000000000000000000000000000000000000000000000000000000900463ffffffff168063557ed1ba146044575b600080fd5b3415604e57600080fd5b6054606a565b6040518082815260200191505060405180910390f35b6000429050905600a165627a7a7230582053883c0c39da080adc15a91094921659c200b3bb60aed9e49b79b0274da3f40100291ba0b5b0e16373fb8471017b6abb5d1c40b48fd7a4620fbf1c6a11a4802a9791367ca0475167c305d9c42d7485701cde9caa70d5d1c69c41865b4cf92438bc3ba27efe\",\"s\":\"0x475167c305d9c42d7485701cde9caa70d5d1c69c41865b4cf92438bc3ba27efe\",\"standardV\":\"0x0\",\"to\":null,\"transactionIndex\":\"0x6\",\"v\":\"0x1b\",\"value\":\"0x0\"}],\"transactionsRoot\":\"0xa95eb3ac55f49f2fbc5412dbdc38a76bb0110f20b2331cbb73fa190090e54545\",\"uncles\":[]},\"id\":23}\n",
      "headers": {
        "Date": "Thu, 15 Feb 2018 20:13:41 GMT",
        "Content-Type": "application/json",
        "Transfer-Encoding": "chunked",
        "Connection": "keep-alive",
        "Set-Cookie": "__cfduid=d555c6f38fa82e0ae955954635717fc551518725621; expires=Fri, 15-Feb-19 20:13:41 GMT; path=/; domain=.poa.network; HttpOnly; Secure",
        "Expect-CT": "max-age=604800, report-uri=\"https://report-uri.cloudflare.com/cdn-cgi/beacon/expect-ct\"",
        "Server": "cloudflare",
        "CF-RAY": "3edaedded95a960d-SJC"
      },
      "status_code": 200,
      "type": "ok"
    }
  }
]
