[
  {
    "request": {
      "body": "{\"params\":[\"0x64d851139325479c3bb7ccc6e6ab4cde5bc927dce6810190fe5d770a4c1ac333\"],\"method\":\"eth_getTransactionByHash\",\"jsonrpc\":\"2.0\",\"id\":2}",
      "headers": {
        "Content-Type": "application/json"
      },
      "method": "post",
      "options": [],
      "request_body": "",
      "url": "http://3.85.253.242:8545"
    },
    "response": {
      "binary": false,
      "body": "{\"jsonrpc\":\"2.0\",\"result\":{\"blockHash\":\"0xfce13392435a8e7dab44c07d482212efb9dc39a9bea1915a9ead308b55a617f9\",\"blockNumber\":\"0xc10d9\",\"chainId\":\"0x4d\",\"condition\":null,\"creates\":null,\"from\":\"0x82e4e61e7f5139ff0a4157a5bc687ef42294c248\",\"gas\":\"0x5208\",\"gasPrice\":\"0x3b9aca00\",\"hash\":\"0x64d851139325479c3bb7ccc6e6ab4cde5bc927dce6810190fe5d770a4c1ac333\",\"input\":\"0x\",\"nonce\":\"0x23c\",\"publicKey\":\"0x750f765a7790aa361dde0ff1d4c9dadd0e1c62fe79dee9c3d6b953abe99ce79755568215a2524d0efe0d5a48d8082e86f317434b62964b0c2e3e3446ebe08099\",\"r\":\"0xb5c079b9b6b131c1f726dc90f829a9dedf7e4d72a787ff90224c630104768afb\",\"raw\":\"0xf86f82023c843b9aca008252089496604b744e9c5a72680d33e7faf9629e19c97eaa8902a18aeae7e44a70008081bea0b5c079b9b6b131c1f726dc90f829a9dedf7e4d72a787ff90224c630104768afba0609d0d6ab60888059000f1c8b3d75c7193462c3dac83f91cf378ad5c5242ec1b\",\"s\":\"0x609d0d6ab60888059000f1c8b3d75c7193462c3dac83f91cf378ad5c5242ec1b\",\"standardV\":\"0x1\",\"to\":\"0x96604b744e9c5a72680d33e7faf9629e19c97eaa\",\"transactionIndex\":\"0x9\",\"v\":\"0xbe\",\"value\":\"0x2a18aeae7e44a7000\"},\"id\":2}\n",
      "headers": {
        "Date": "Thu, 15 Feb 2018 20:13:31 GMT",
        "Content-Type": "application/json",
        "Transfer-Encoding": "chunked",
        "Connection": "keep-alive",
        "Set-Cookie": "__cfduid=d6241a2ec1875e2b495202f72ce90264f1518725611; expires=Fri, 15-Feb-19 20:13:31 GMT; path=/; domain=.poa.network; HttpOnly; Secure",
        "Expect-CT": "max-age=604800, report-uri=\"https://report-uri.cloudflare.com/cdn-cgi/beacon/expect-ct\"",
        "Server": "cloudflare",
        "CF-RAY": "3edaeda23aa7960d-SJC"
      },
      "status_code": 200,
      "type": "ok"
    }
  }
]
