[
  {
    "request": {
      "body": "{\"params\":[\"0x051e031f05b3b3a5ff73e1189c36e3e2a41fd1c2d9772b2c75349e22ed4d3f68\"],\"method\":\"eth_getTransactionByHash\",\"jsonrpc\":\"2.0\",\"id\":0}",
      "headers": {
        "Content-Type": "application/json"
      },
      "method": "post",
      "options": [],
      "request_body": "",
      "url": "http://3.85.253.242:8545"
    },
    "response": {
      "binary": false,
      "body": "{\"jsonrpc\":\"2.0\",\"result\":{\"blockHash\":\"0x764e83f5e0c2d0b8b8b28421b430267c7d02260caaf014495a7deb3550b051bb\",\"blockNumber\":\"0x94b87\",\"chainId\":\"0x4d\",\"condition\":null,\"creates\":null,\"from\":\"0x82e4e61e7f5139ff0a4157a5bc687ef42294c248\",\"gas\":\"0xb5e4\",\"gasPrice\":\"0x3b9aca00\",\"hash\":\"0x051e031f05b3b3a5ff73e1189c36e3e2a41fd1c2d9772b2c75349e22ed4d3f68\",\"input\":\"0x\",\"nonce\":\"0x190\",\"publicKey\":\"0x750f765a7790aa361dde0ff1d4c9dadd0e1c62fe79dee9c3d6b953abe99ce79755568215a2524d0efe0d5a48d8082e86f317434b62964b0c2e3e3446ebe08099\",\"r\":\"0x94d42f80a1137906cb3e8733ec12837e88d862edf1757de90d35ef0aa90cbc7a\",\"raw\":\"0xf86e820190843b9aca0082b5e4940e8a835861fe709b6100f83628debbc353342734880f95b28cd2c380008081bea094d42f80a1137906cb3e8733ec12837e88d862edf1757de90d35ef0aa90cbc7aa03da8b0651dec4d7f747177792e6023252db9c6f0a137c4149e9c994c053cf22a\",\"s\":\"0x3da8b0651dec4d7f747177792e6023252db9c6f0a137c4149e9c994c053cf22a\",\"standardV\":\"0x1\",\"to\":\"0x0e8a835861fe709b6100f83628debbc353342734\",\"transactionIndex\":\"0x0\",\"v\":\"0xbe\",\"value\":\"0xf95b28cd2c38000\"},\"id\":0}\n",
      "headers": {
        "Date": "Fri, 23 Feb 2018 22:45:24 GMT",
        "Content-Type": "application/json",
        "Transfer-Encoding": "chunked",
        "Connection": "keep-alive",
        "Set-Cookie": "__cfduid=d34a81fb10f3b5a70f78d46097ba3eedc1519425923; expires=Sat, 23-Feb-19 22:45:23 GMT; path=/; domain=.poa.network; HttpOnly; Secure",
        "Expect-CT": "max-age=604800, report-uri=\"https://report-uri.cloudflare.com/cdn-cgi/beacon/expect-ct\"",
        "Server": "cloudflare",
        "CF-RAY": "3f1db7189cd26c04-SJC"
      },
      "status_code": 200,
      "type": "ok"
    }
  }
]
