[
  {
    "request": {
      "body": "{\"params\":[\"pending\",true],\"method\":\"eth_getBlockByNumber\",\"jsonrpc\":\"2.0\",\"id\":15}",
      "headers": {
        "Content-Type": "application/json"
      },
      "method": "post",
      "options": [],
      "request_body": "",
      "url": "https://sokol.poa.network"
    },
    "response": {
      "binary": false,
      "body": "{\"jsonrpc\":\"2.0\",\"result\":{\"author\":\"0xe2ac1c6843a33f81ae4935e5ef1277a392990381\",\"difficulty\":\"0xfffffffffffffffffffffffffffffffe\",\"extraData\":\"0xd5830108048650617269747986312e32322e31826c69\",\"gasLimit\":\"0x7a1200\",\"gasUsed\":\"0xbe51c\",\"hash\":\"0xe25f74c9969f23a7b948f857b795297954c23d97b5faeeb1ed37b3de56374bf8\",\"logsBloom\":\"0x00000000000000000000000000000000000000010000000000000000000000000000000000000000000000000000000000200000000000001000000010000020800000000000000000000000000000000000000000000000000000000020000000000000000000000000200000000000000000000020000000000000000000000000000000000000000000000000000000000000000400000000000000000000000000000000004000000000000000000000000000000000000000000000000000000000000000000000000000000000000000000000000000000000000000008000000000200000000080000000000000000000000000000000200000000000\",\"miner\":\"0xe2ac1c6843a33f81ae4935e5ef1277a392990381\",\"number\":\"0xcc1ce\",\"parentHash\":\"0x06d591a52de73723f943511b3380da4960cf8d05b9a3301ff7aab41b622b784e\",\"receiptsRoot\":\"0x87e7693ba130b65422776bd6acbc43281ecac1fa35173121a45dfb09fa33c5b8\",\"sealFields\":[\"0x841218e36e\",\"0xb8412050826bc3368eb01ebc4332383139d9435336d2afeebc735fb57179d94f1ccb0318dad257b231d287b5ac26843123fbc46946133cfe91f11e99db639dfa83b100\"],\"sha3Uncles\":\"0x1dcc4de8dec75d7aab85b567b6ccd41ad312451b948a7413f0a142fd40d49347\",\"signature\":\"2050826bc3368eb01ebc4332383139d9435336d2afeebc735fb57179d94f1ccb0318dad257b231d287b5ac26843123fbc46946133cfe91f11e99db639dfa83b100\",\"size\":\"0x102e\",\"stateRoot\":\"0x5f1ec0afe7cc6a2b4bc9a7c607888c2e96bc4dab8b2a69326f1062e07e41791a\",\"step\":\"303620974\",\"timestamp\":\"0x5a7c7125\",\"totalDifficulty\":\"0xcc1cdffffffffffffffffffffffffeddc5ac4\",\"transactions\":[{\"blockHash\":\"0xe25f74c9969f23a7b948f857b795297954c23d97b5faeeb1ed37b3de56374bf8\",\"blockNumber\":\"0xcc1ce\",\"chainId\":null,\"condition\":null,\"creates\":null,\"from\":\"0xb2867180771b196518651c174c9240d5e8bd0ecd\",\"gas\":\"0x36de5\",\"gasPrice\":\"0xb2d05e00\",\"hash\":\"0x79da592cb6d7691bc15ab75568f2efc9446c921dbd897c1091b0a32ee94669bc\",\"input\":\"0x53656e74206f6e2031353138313034383635343637\",\"nonce\":\"0x12b84\",\"publicKey\":\"0xbf0cf158b32b838553af2c4f9e3393e6fb4cb0a97a7e4025d3fe3a552e3cfa720779da708ec4a5a89c9a6ca7f16d1b49605a9b8bdb28bd2a45818418743d153c\",\"r\":\"0x1bf97ee54e879a535664e9b50b2963f59a2d462ac9e48bfb6366ffb8989d7b23\",\"raw\":\"0xf88383012b8484b2d05e0083036de594b8f3bf8b5f882291b084609264edcb6c1074ddfe871274477ed240009553656e74206f6e20313531383130343836353436371ba01bf97ee54e879a535664e9b50b2963f59a2d462ac9e48bfb6366ffb8989d7b23a0262a0c8d9739c9942286842e965b0af83932166eba68486ac9447540e92a90fe\",\"s\":\"0x262a0c8d9739c9942286842e965b0af83932166eba68486ac9447540e92a90fe\",\"standardV\":\"0x0\",\"to\":\"0xb8f3bf8b5f882291b084609264edcb6c1074ddfe\",\"transactionIndex\":\"0x0\",\"v\":\"0x1b\",\"value\":\"0x1274477ed24000\"},{\"blockHash\":\"0xe25f74c9969f23a7b948f857b795297954c23d97b5faeeb1ed37b3de56374bf8\",\"blockNumber\":\"0xcc1ce\",\"chainId\":null,\"condition\":null,\"creates\":null,\"from\":\"0x8a35723e64a47764b9acfec5e647b39a4e5d635c\",\"gas\":\"0x38561\",\"gasPrice\":\"0xb2d05e00\",\"hash\":\"0x775a1d5e8677d0ec829b785f96f9c3fd07b27dea95f24664cca744c18ee09abd\",\"input\":\"0x53656e74206f6e2031353138313034383635353339\",\"nonce\":\"0x12b03\",\"publicKey\":\"0xbd2c35eb20bfab52e22b8b9fbcfc3f5f8a927f7d6b800960026921929eeb0976a304639c785ce1a509900922d6ef8fd1222b7b48cdcb38c97b49c0f37c59c0f7\",\"r\":\"0x9c37da90530e2e499e3dcae9b71fa5656c44acd8483f0b56cb56f2a0d36fcb49\",\"raw\":\"0xf88283012b0384b2d05e0083038561940abc2af99a5b41f5d5e4b6eea2b9a943d6cd24ca860253dc34f8009553656e74206f6e20313531383130343836353533391ba09c37da90530e2e499e3dcae9b71fa5656c44acd8483f0b56cb56f2a0d36fcb49a0012631cdb52141b0d1c1be6c18929ff3697f22e9a79e27e1334fcdb1ba79db22\",\"s\":\"0x12631cdb52141b0d1c1be6c18929ff3697f22e9a79e27e1334fcdb1ba79db22\",\"standardV\":\"0x0\",\"to\":\"0x0abc2af99a5b41f5d5e4b6eea2b9a943d6cd24ca\",\"transactionIndex\":\"0x1\",\"v\":\"0x1b\",\"value\":\"0x253dc34f800\"},{\"blockHash\":\"0xe25f74c9969f23a7b948f857b795297954c23d97b5faeeb1ed37b3de56374bf8\",\"blockNumber\":\"0xcc1ce\",\"chainId\":null,\"condition\":null,\"creates\":null,\"from\":\"0xcd5201782d627784c03f47e1dea77ec24600a4d6\",\"gas\":\"0x37492\",\"gasPrice\":\"0xb2d05e00\",\"hash\":\"0x3c29fb3125b64d54baf8f24bd15bc8599470b1767bdb701a8a813ff48b7a9912\",\"input\":\"0x53656e74206f6e2031353138313034383635363634\",\"nonce\":\"0x1289e\",\"publicKey\":\"0x0a6d5c3db87a9e5eea4e79a2eb1dedba99f9fdb7502d575ff97108ac643f734822e5479e2b909a37c0212a8991f70cf2cdf12be57ab65777df500ca9489b6aeb\",\"r\":\"0xa8a0fb5a22f0306ce73d8f647fe4e023ab4824d7189d564d5bd3713eca699386\",\"raw\":\"0xf8828301289e84b2d05e008303749294cde9ce2c30a22c677d084ea8967a522e2057b2478604230dafee009553656e74206f6e20313531383130343836353636341ba0a8a0fb5a22f0306ce73d8f647fe4e023ab4824d7189d564d5bd3713eca699386a020f56f0d2545468347e821261ecddcc3e488d172eb5d0bcd6fcae5f1671fbcd8\",\"s\":\"0x20f56f0d2545468347e821261ecddcc3e488d172eb5d0bcd6fcae5f1671fbcd8\",\"standardV\":\"0x0\",\"to\":\"0xcde9ce2c30a22c677d084ea8967a522e2057b247\",\"transactionIndex\":\"0x2\",\"v\":\"0x1b\",\"value\":\"0x4230dafee00\"},{\"blockHash\":\"0xe25f74c9969f23a7b948f857b795297954c23d97b5faeeb1ed37b3de56374bf8\",\"blockNumber\":\"0xcc1ce\",\"chainId\":null,\"condition\":null,\"creates\":\"0x2589853da9d749792dd8a1dcbae4282d039aa1fd\",\"from\":\"0x5826f665e19039cff25a9a6926a705f40952c315\",\"gas\":\"0x36745\",\"gasPrice\":\"0xb2d05e00\",\"hash\":\"0xde6a5fd835e7bfc6dd1ac0cce72118aedbb0ded23a382c2865a251ec51bc46ab\",\"input\":\"0x6060604052341561000f57600080fd5b7fb94ae47ec9f4248692e2ecf9740b67ab493f3dcc8452bedc7d9cd911c28d1ca5426040518082815260200191505060405180910390a1609e806100546000396000f300606060405260043610603f576000357c0100000000000000000000000000000000000000000000000000000000900463ffffffff168063557ed1ba146044575b600080fd5b3415604e57600080fd5b6054606a565b6040518082815260200191505060405180910390f35b6000429050905600a165627a7a7230582053883c0c39da080adc15a91094921659c200b3bb60aed9e49b79b0274da3f4010029\",\"nonce\":\"0x12a63\",\"publicKey\":\"0x515bd41f2d0ecd1d4a74150b714a4fc65b33bb6f7d76f4b1863c3f65a2af89ebdcfdd29c4b5eaf5e021c6ec12a8423b4a71fff088c2545e24f3535353ca008df\",\"r\":\"0xfc452e700366a665694dbbd318f361fdbcda0dfeaeb486f2c23840ebabcf4b71\",\"raw\":\"0xf9014683012a6384b2d05e00830367458080b8f26060604052341561000f57600080fd5b7fb94ae47ec9f4248692e2ecf9740b67ab493f3dcc8452bedc7d9cd911c28d1ca5426040518082815260200191505060405180910390a1609e806100546000396000f300606060405260043610603f576000357c0100000000000000000000000000000000000000000000000000000000900463ffffffff168063557ed1ba146044575b600080fd5b3415604e57600080fd5b6054606a565b6040518082815260200191505060405180910390f35b6000429050905600a165627a7a7230582053883c0c39da080adc15a91094921659c200b3bb60aed9e49b79b0274da3f40100291ba0fc452e700366a665694dbbd318f361fdbcda0dfeaeb486f2c23840ebabcf4b71a00fb832f2a03351cd60c91658aae521e6414996838e979f04bbfea87dc226129e\",\"s\":\"0xfb832f2a03351cd60c91658aae521e6414996838e979f04bbfea87dc226129e\",\"standardV\":\"0x0\",\"to\":null,\"transactionIndex\":\"0x3\",\"v\":\"0x1b\",\"value\":\"0x0\"},{\"blockHash\":\"0xe25f74c9969f23a7b948f857b795297954c23d97b5faeeb1ed37b3de56374bf8\",\"blockNumber\":\"0xcc1ce\",\"chainId\":null,\"condition\":null,\"creates\":null,\"from\":\"0x09e5b0ecfc67889b2e87e1a4818fa0665bef3539\",\"gas\":\"0x36be5\",\"gasPrice\":\"0xb2d05e00\",\"hash\":\"0x89c5f07433988a238c09e1d0954755301995b3071c5f752d8cbbd4a88bbccb26\",\"input\":\"0x53656e74206f6e2031353138313034383635353738\",\"nonce\":\"0x12ab6\",\"publicKey\":\"0x3ffc8ab487c82aba58727cbf78ae83e2d7df0365afe414be4de23820edda1f73a42ba4b12b29f8848332e549daac812d78cacf314928f3dcc4382f875d142c6d\",\"r\":\"0xc4ec5bdab56901b2491dada99662132d5f3415d33728427a5317d40373f5099b\",\"raw\":\"0xf88283012ab684b2d05e0083036be5944ced5d8414c8ba83e44ce65d204322410955773486e6fe53ae18009553656e74206f6e20313531383130343836353537381ba0c4ec5bdab56901b2491dada99662132d5f3415d33728427a5317d40373f5099ba042d40ba3756e6beb7a91990e7fcda3467738d468515ebc802462dd6b9ccb43ba\",\"s\":\"0x42d40ba3756e6beb7a91990e7fcda3467738d468515ebc802462dd6b9ccb43ba\",\"standardV\":\"0x0\",\"to\":\"0x4ced5d8414c8ba83e44ce65d2043224109557734\",\"transactionIndex\":\"0x4\",\"v\":\"0x1b\",\"value\":\"0xe6fe53ae1800\"},{\"blockHash\":\"0xe25f74c9969f23a7b948f857b795297954c23d97b5faeeb1ed37b3de56374bf8\",\"blockNumber\":\"0xcc1ce\",\"chainId\":null,\"condition\":null,\"creates\":null,\"from\":\"0x5d28e486dc66607f9315be57869607cc4a7d85b8\",\"gas\":\"0x385e4\",\"gasPrice\":\"0xb2d05e00\",\"hash\":\"0x4be9069af238de0028fffe869b5bba966212a588d0db1c3279593091e3b112c3\",\"input\":\"0x53656e74206f6e2031353138313034383635363233\",\"nonce\":\"0x129f0\",\"publicKey\":\"0x0a34da110120cb8d49eb976b1471d9e26637aebec107afb642ad3fc90693b81eab3288e73843a8112021a7de1fe95a3622ddd2f11d6e6adad8d950e867c592ff\",\"r\":\"0x1d9851a0ca05d301c0009e098e53dcc9ece1fb8fb5575f5a7f2813ff8272b742\",\"raw\":\"0xf883830129f084b2d05e00830385e494f8187f1cbac93933851aeecb8ce394fb9f011064871e336ebc4e80009553656e74206f6e20313531383130343836353632331ba01d9851a0ca05d301c0009e098e53dcc9ece1fb8fb5575f5a7f2813ff8272b742a015bee03e338d9d2c29531b1d99b0e0084b1e9eabe1c017ebe563bfa98a8f28ae\",\"s\":\"0x15bee03e338d9d2c29531b1d99b0e0084b1e9eabe1c017ebe563bfa98a8f28ae\",\"standardV\":\"0x0\",\"to\":\"0xf8187f1cbac93933851aeecb8ce394fb9f011064\",\"transactionIndex\":\"0x5\",\"v\":\"0x1b\",\"value\":\"0x1e336ebc4e8000\"},{\"blockHash\":\"0xe25f74c9969f23a7b948f857b795297954c23d97b5faeeb1ed37b3de56374bf8\",\"blockNumber\":\"0xcc1ce\",\"chainId\":null,\"condition\":null,\"creates\":null,\"from\":\"0xa5b4b372112ab8dbbb48c8d0edd89227e24ec785\",\"gas\":\"0x388bd\",\"gasPrice\":\"0xb2d05e00\",\"hash\":\"0x64a7707baad7aad877ae26dda679ced58d9f57bcc57eae1191d0b568e387a66a\",\"input\":\"0x53656e74206f6e2031353138313034383635363431\",\"nonce\":\"0x12941\",\"publicKey\":\"0x3366f04816d42836375b8f28d5b0d341f8a47fb46a59a754ca924c7397d335a7b89a0f94f7c4d36f29ae6f6acdd3f2c0bdf12d9314799c407cf5b6bc4b370d4f\",\"r\":\"0x38abfe5f7f884e22857d8df97826e7552639597c253c07080d633979b411c2a8\",\"raw\":\"0xf8838301294184b2d05e00830388bd946e711a566551900adba2b2e47ed0833c44403726871960e26b7d10009553656e74206f6e20313531383130343836353634311ba038abfe5f7f884e22857d8df97826e7552639597c253c07080d633979b411c2a8a053fb04c41a31f0a932561b121489274f6c8e451bf1644e5b40b0fe1524d359b1\",\"s\":\"0x53fb04c41a31f0a932561b121489274f6c8e451bf1644e5b40b0fe1524d359b1\",\"standardV\":\"0x0\",\"to\":\"0x6e711a566551900adba2b2e47ed0833c44403726\",\"transactionIndex\":\"0x6\",\"v\":\"0x1b\",\"value\":\"0x1960e26b7d1000\"},{\"blockHash\":\"0xe25f74c9969f23a7b948f857b795297954c23d97b5faeeb1ed37b3de56374bf8\",\"blockNumber\":\"0xcc1ce\",\"chainId\":null,\"condition\":null,\"creates\":null,\"from\":\"0xb6b7b4161c7bd2d5d8eaf9081871c279f67c9e62\",\"gas\":\"0x36b60\",\"gasPrice\":\"0xb2d05e00\",\"hash\":\"0x2e23d2682ec95c596f757f9fb89c9e368951c39754318e4f7b1a62b0ec1d1d51\",\"input\":\"0x53656e74206f6e2031353138313034383635353133\",\"nonce\":\"0x12b45\",\"publicKey\":\"0xec68be96d67168678c7e585dfcf95f9e68847a50b8b789ee177a22c88aa43eadda6a80ed9eff6dd065e9ead111ff517984b5d208f89eb18e4289551bd353ff30\",\"r\":\"0x12a364e273459178b81bd89ee16a77472fd6a7a2d900d983483bb0b18debe072\",\"raw\":\"0xf88383012b4584b2d05e0083036b6094e94dc041a3873a03a3efc305044f1458761c7420871a2fe2aca3b0009553656e74206f6e20313531383130343836353531331ca012a364e273459178b81bd89ee16a77472fd6a7a2d900d983483bb0b18debe072a01ce13ff67c4ea46d13c8b4fe1c6de033506be8bb0b399f586a13228478d80005\",\"s\":\"0x1ce13ff67c4ea46d13c8b4fe1c6de033506be8bb0b399f586a13228478d80005\",\"standardV\":\"0x1\",\"to\":\"0xe94dc041a3873a03a3efc305044f1458761c7420\",\"transactionIndex\":\"0x7\",\"v\":\"0x1c\",\"value\":\"0x1a2fe2aca3b000\"},{\"blockHash\":\"0xe25f74c9969f23a7b948f857b795297954c23d97b5faeeb1ed37b3de56374bf8\",\"blockNumber\":\"0xcc1ce\",\"chainId\":null,\"condition\":null,\"creates\":\"0xc5b71b6ef450719e7b68f734f00ac78e39821f5d\",\"from\":\"0x6e711a566551900adba2b2e47ed0833c44403726\",\"gas\":\"0x369cf\",\"gasPrice\":\"0x77359400\",\"hash\":\"0x63ef32068ef149372e22d80fc8020e1e150d5f22a98a7ddd965af6b14ad3be22\",\"input\":\"0x6060604052341561000f57600080fd5b7fb94ae47ec9f4248692e2ecf9740b67ab493f3dcc8452bedc7d9cd911c28d1ca5426040518082815260200191505060405180910390a1609e806100546000396000f300606060405260043610603f576000357c0100000000000000000000000000000000000000000000000000000000900463ffffffff168063557ed1ba146044575b600080fd5b3415604e57600080fd5b6054606a565b6040518082815260200191505060405180910390f35b6000429050905600a165627a7a7230582053883c0c39da080adc15a91094921659c200b3bb60aed9e49b79b0274da3f4010029\",\"nonce\":\"0xcb2b\",\"publicKey\":\"0x1053d373c208e8b5d6a5cd439a576142010d5b5c37d16109dc4b7870e96f0d4e37385f0a0c2c37e6274e5060ca5005cbad48b9c5a3da4decc33347692bfbaaef\",\"r\":\"0xbe87c64b82101b44406efd267c4fa058fdbe75d97612771c869068e6cfb10ade\",\"raw\":\"0xf9014582cb2b8477359400830369cf8080b8f26060604052341561000f57600080fd5b7fb94ae47ec9f4248692e2ecf9740b67ab493f3dcc8452bedc7d9cd911c28d1ca5426040518082815260200191505060405180910390a1609e806100546000396000f300606060405260043610603f576000357c0100000000000000000000000000000000000000000000000000000000900463ffffffff168063557ed1ba146044575b600080fd5b3415604e57600080fd5b6054606a565b6040518082815260200191505060405180910390f35b6000429050905600a165627a7a7230582053883c0c39da080adc15a91094921659c200b3bb60aed9e49b79b0274da3f40100291ca0be87c64b82101b44406efd267c4fa058fdbe75d97612771c869068e6cfb10adea0029c0d08b6b79d421bd985d5197825599db6ba0f88818b5771eb6598c40241e6\",\"s\":\"0x29c0d08b6b79d421bd985d5197825599db6ba0f88818b5771eb6598c40241e6\",\"standardV\":\"0x1\",\"to\":null,\"transactionIndex\":\"0x8\",\"v\":\"0x1c\",\"value\":\"0x0\"},{\"blockHash\":\"0xe25f74c9969f23a7b948f857b795297954c23d97b5faeeb1ed37b3de56374bf8\",\"blockNumber\":\"0xcc1ce\",\"chainId\":null,\"condition\":null,\"creates\":\"0x38c65c79dbb9f24fca6a4285d7dd33ec7fbfef29\",\"from\":\"0xcde9ce2c30a22c677d084ea8967a522e2057b247\",\"gas\":\"0x37449\",\"gasPrice\":\"0x77359400\",\"hash\":\"0x5b4ca988c2a859480313e658f29665f98c77e95c51110af613873ef768b6b2f8\",\"input\":\"0x6060604052341561000f57600080fd5b7fb94ae47ec9f4248692e2ecf9740b67ab493f3dcc8452bedc7d9cd911c28d1ca5426040518082815260200191505060405180910390a1609e806100546000396000f300606060405260043610603f576000357c0100000000000000000000000000000000000000000000000000000000900463ffffffff168063557ed1ba146044575b600080fd5b3415604e57600080fd5b6054606a565b6040518082815260200191505060405180910390f35b6000429050905600a165627a7a7230582053883c0c39da080adc15a91094921659c200b3bb60aed9e49b79b0274da3f4010029\",\"nonce\":\"0xc9c4\",\"publicKey\":\"0x792fe0ae792b906173c88709d2cc566454ee6ce85bb567206f08356eb5e87910544357913814ce6096e5a4fbf6a8b1db68b88d96ac13bd68997222b77fd8694a\",\"r\":\"0xb40a413bd6364d94040e51e9135b974c4477b19cf5a490fcad6bfcc495b28e0f\",\"raw\":\"0xf9014582c9c48477359400830374498080b8f26060604052341561000f57600080fd5b7fb94ae47ec9f4248692e2ecf9740b67ab493f3dcc8452bedc7d9cd911c28d1ca5426040518082815260200191505060405180910390a1609e806100546000396000f300606060405260043610603f576000357c0100000000000000000000000000000000000000000000000000000000900463ffffffff168063557ed1ba146044575b600080fd5b3415604e57600080fd5b6054606a565b6040518082815260200191505060405180910390f35b6000429050905600a165627a7a7230582053883c0c39da080adc15a91094921659c200b3bb60aed9e49b79b0274da3f40100291ca0b40a413bd6364d94040e51e9135b974c4477b19cf5a490fcad6bfcc495b28e0fa05650bd4f3c3338d26dd9252d625ee114ac4e35ba59ab84bbfff34159c6a0db61\",\"s\":\"0x5650bd4f3c3338d26dd9252d625ee114ac4e35ba59ab84bbfff34159c6a0db61\",\"standardV\":\"0x1\",\"to\":null,\"transactionIndex\":\"0x9\",\"v\":\"0x1c\",\"value\":\"0x0\"},{\"blockHash\":\"0xe25f74c9969f23a7b948f857b795297954c23d97b5faeeb1ed37b3de56374bf8\",\"blockNumber\":\"0xcc1ce\",\"chainId\":null,\"condition\":null,\"creates\":null,\"from\":\"0x28431b129097fa91e5da2afcd9d45cd2fb66da5a\",\"gas\":\"0x388d1\",\"gasPrice\":\"0x77359400\",\"hash\":\"0x0af7e52f75fd83fe423e4802c7b75ec64b2e0118d472765e92f88391204aeb13\",\"input\":\"0x53656e74206f6e2031353138313034383633363233\",\"nonce\":\"0xcd9c\",\"publicKey\":\"0xa2b863f0b1381d1468ffb401c7b3cd6bb69acb9c16eb80c531dd233152fe70af48591e4cfca5025d7b2ff95ce9a93f8f8b83a58dd87ee10742375c01d3bddfc6\",\"r\":\"0x882669beaf08ce37e6fe676e08999aa267a7e72f21c277652c6d5685988244a7\",\"raw\":\"0xf88182cd9c8477359400830388d1945826f665e19039cff25a9a6926a705f40952c315860e451ce064009553656e74206f6e20313531383130343836333632331ba0882669beaf08ce37e6fe676e08999aa267a7e72f21c277652c6d5685988244a7a05177fba77b95c2079f6780a04a281a3ca44a7e04b31d4ffe04eaca14ae4bef50\",\"s\":\"0x5177fba77b95c2079f6780a04a281a3ca44a7e04b31d4ffe04eaca14ae4bef50\",\"standardV\":\"0x0\",\"to\":\"0x5826f665e19039cff25a9a6926a705f40952c315\",\"transactionIndex\":\"0xa\",\"v\":\"0x1b\",\"value\":\"0xe451ce06400\"},{\"blockHash\":\"0xe25f74c9969f23a7b948f857b795297954c23d97b5faeeb1ed37b3de56374bf8\",\"blockNumber\":\"0xcc1ce\",\"chainId\":null,\"condition\":null,\"creates\":null,\"from\":\"0x1f33943f98d76ad47347d2b95acf2f01c0b423b3\",\"gas\":\"0x36841\",\"gasPrice\":\"0x77359400\",\"hash\":\"0xaca94d82eb55cd94a42fc5d23facb934315fc7ee9089557a275a972ab5161b87\",\"input\":\"0x53656e74206f6e2031353138313034383633363737\",\"nonce\":\"0xc6d9\",\"publicKey\":\"0xd62492260a7d2681ad9eadaa80fcd440eab3bc0767edcc66d33d20eefb02eb262a73a072e114ab1d404c5039c4954a68d9bf24b54f67dba8043d818fb88e0071\",\"r\":\"0x3eac6432ef1d4de3bd0010ccb28db538e771d56f6c8f73a9a24bef1dc6b26611\",\"raw\":\"0xf88182c6d9847735940083036841940210aad2fbe6e2f6d63e171135974e145091ec4c8605613d6510009553656e74206f6e20313531383130343836333637371ba03eac6432ef1d4de3bd0010ccb28db538e771d56f6c8f73a9a24bef1dc6b26611a04f0619447a1407a2c2271c59f17c4ae793a384c71822ac9758ec0f09d57ae951\",\"s\":\"0x4f0619447a1407a2c2271c59f17c4ae793a384c71822ac9758ec0f09d57ae951\",\"standardV\":\"0x0\",\"to\":\"0x0210aad2fbe6e2f6d63e171135974e145091ec4c\",\"transactionIndex\":\"0xb\",\"v\":\"0x1b\",\"value\":\"0x5613d651000\"},{\"blockHash\":\"0xe25f74c9969f23a7b948f857b795297954c23d97b5faeeb1ed37b3de56374bf8\",\"blockNumber\":\"0xcc1ce\",\"chainId\":null,\"condition\":null,\"creates\":null,\"from\":\"0x2c9c5bc76fa77d45a78d01b172750ce1710203c0\",\"gas\":\"0x38a5d\",\"gasPrice\":\"0x77359400\",\"hash\":\"0x9180b6b22de2ae0848f0392c34fff986e61af15f3ce66fade1185e4b208220ed\",\"input\":\"0x53656e74206f6e2031353138313034383633363636\",\"nonce\":\"0xc84f\",\"publicKey\":\"0xfe41e59d90b1b84a8592fe0858460952c7b6809cf207d85f35f9c4ee49338c93dc7664b1c10f4e91cbe8386cbd494d62a6cec3e7fb048373a0e42dcd33980977\",\"r\":\"0xa8671afacde5ef0d8e32fa0eb0726f81cfed494d252a0b69eb66a88f9466bbb1\",\"raw\":\"0xf88182c84f847735940083038a5d945acbc611916e7a9a335c5aac64eeb829f5b518b98630f75e7856009553656e74206f6e20313531383130343836333636361ca0a8671afacde5ef0d8e32fa0eb0726f81cfed494d252a0b69eb66a88f9466bbb1a02fb73e3b456cf0a883f02ecfdb0c793ad9deba58f531cc5cf45f4eebf656f97a\",\"s\":\"0x2fb73e3b456cf0a883f02ecfdb0c793ad9deba58f531cc5cf45f4eebf656f97a\",\"standardV\":\"0x1\",\"to\":\"0x5acbc611916e7a9a335c5aac64eeb829f5b518b9\",\"transactionIndex\":\"0xc\",\"v\":\"0x1c\",\"value\":\"0x30f75e785600\"},{\"blockHash\":\"0xe25f74c9969f23a7b948f857b795297954c23d97b5faeeb1ed37b3de56374bf8\",\"blockNumber\":\"0xcc1ce\",\"chainId\":null,\"condition\":null,\"creates\":\"0x6380751b8ccacb23432b3acf7945927efb7fd3ae\",\"from\":\"0xf8187f1cbac93933851aeecb8ce394fb9f011064\",\"gas\":\"0x369e3\",\"gasPrice\":\"0x77359400\",\"hash\":\"0x7e2e3377d5cdcb60116610ded189970db9c47097131a338896aeb41e4f2f4319\",\"input\":\"0x6060604052341561000f57600080fd5b7fb94ae47ec9f4248692e2ecf9740b67ab493f3dcc8452bedc7d9cd911c28d1ca5426040518082815260200191505060405180910390a1609e806100546000396000f300606060405260043610603f576000357c0100000000000000000000000000000000000000000000000000000000900463ffffffff168063557ed1ba146044575b600080fd5b3415604e57600080fd5b6054606a565b6040518082815260200191505060405180910390f35b6000429050905600a165627a7a7230582053883c0c39da080adc15a91094921659c200b3bb60aed9e49b79b0274da3f4010029\",\"nonce\":\"0xcc56\",\"publicKey\":\"0x076ad00a205c4d195fddd550097aead07bb1fd6f2fdf6087c5cca4d1a7e90774867cb5f268046784086cc50a88b455fa086519475f61fd621d027fdd4a17fca8\",\"r\":\"0xcf968497491cdb54dc2276f55651be3026b03fc082df03e81be5a823428cc785\",\"raw\":\"0xf9014582cc568477359400830369e38080b8f26060604052341561000f57600080fd5b7fb94ae47ec9f4248692e2ecf9740b67ab493f3dcc8452bedc7d9cd911c28d1ca5426040518082815260200191505060405180910390a1609e806100546000396000f300606060405260043610603f576000357c0100000000000000000000000000000000000000000000000000000000900463ffffffff168063557ed1ba146044575b600080fd5b3415604e57600080fd5b6054606a565b6040518082815260200191505060405180910390f35b6000429050905600a165627a7a7230582053883c0c39da080adc15a91094921659c200b3bb60aed9e49b79b0274da3f40100291ca0cf968497491cdb54dc2276f55651be3026b03fc082df03e81be5a823428cc785a0573684da3c53c0cbe41323ffb18ab523f12bcc27da1f70933964883e7d6ece12\",\"s\":\"0x573684da3c53c0cbe41323ffb18ab523f12bcc27da1f70933964883e7d6ece12\",\"standardV\":\"0x1\",\"to\":null,\"transactionIndex\":\"0xd\",\"v\":\"0x1c\",\"value\":\"0x0\"},{\"blockHash\":\"0xe25f74c9969f23a7b948f857b795297954c23d97b5faeeb1ed37b3de56374bf8\",\"blockNumber\":\"0xcc1ce\",\"chainId\":null,\"condition\":null,\"creates\":null,\"from\":\"0x6e1d1620b61632e0e7f80b857ebb8df41dbafacf\",\"gas\":\"0x37957\",\"gasPrice\":\"0x77359400\",\"hash\":\"0x8845f8a57dc71896fae88646bfcebfc43d55dd033da68d1346f495781eb2e8a6\",\"input\":\"0x53656e74206f6e2031353138313034383633373033\",\"nonce\":\"0xc577\",\"publicKey\":\"0x5890bb3e77cf729ed0e501fe6835c50f27bf08522b43320dab5e5af317dc1df8cd48f886dc509ec1de7fb0168d15e746af7211ba85831d296114797306005a8d\",\"r\":\"0x32ff25a341752be405742fadacb423833e764453c7669f1a472d33964d8504dd\",\"raw\":\"0xf88282c577847735940083037957943c842d719e3d7d976484a8ce4fae281fd271ac36870173233364bc009553656e74206f6e20313531383130343836333730331ba032ff25a341752be405742fadacb423833e764453c7669f1a472d33964d8504dda030350ec94d598b40d5cb92945fdcbccafd9bddf059ee2eca1f46c0412a191fc5\",\"s\":\"0x30350ec94d598b40d5cb92945fdcbccafd9bddf059ee2eca1f46c0412a191fc5\",\"standardV\":\"0x0\",\"to\":\"0x3c842d719e3d7d976484a8ce4fae281fd271ac36\",\"transactionIndex\":\"0xe\",\"v\":\"0x1b\",\"value\":\"0x173233364bc00\"},{\"blockHash\":\"0xe25f74c9969f23a7b948f857b795297954c23d97b5faeeb1ed37b3de56374bf8\",\"blockNumber\":\"0xcc1ce\",\"chainId\":null,\"condition\":null,\"creates\":null,\"from\":\"0xe0c3d0f564c7c3d9605bf3914875d2d70fe44b99\",\"gas\":\"0x38979\",\"gasPrice\":\"0x77359400\",\"hash\":\"0x5ee97ad8737d71c80291dcaa307fb6a1777a6cc7d124f722c9ebd604da466dd0\",\"input\":\"0x53656e74206f6e2031353138313034383633373036\",\"nonce\":\"0xc2d2\",\"publicKey\":\"0x5973b31cd121a017c10ace52079ace6d5858831e1190aecd25c97c121d9151bc2df6265c28bb1b1f2e1708a6aff4eed18625cbd2de2b1d764495c37db7257145\",\"r\":\"0x39d938e0645c08c34ef9c901ce1b417b55c90dd1233567bb420c5fdcb458f972\",\"raw\":\"0xf88282c2d284773594008303897994ce12dcf347f42e8b7972df8d86cdb21a957cff328701c5d429b24c009553656e74206f6e20313531383130343836333730361ba039d938e0645c08c34ef9c901ce1b417b55c90dd1233567bb420c5fdcb458f972a07e5f5e57222697a3b879d718a879f5d2c413d7f139049adb44d4aa85b4b49c40\",\"s\":\"0x7e5f5e57222697a3b879d718a879f5d2c413d7f139049adb44d4aa85b4b49c40\",\"standardV\":\"0x0\",\"to\":\"0xce12dcf347f42e8b7972df8d86cdb21a957cff32\",\"transactionIndex\":\"0xf\",\"v\":\"0x1b\",\"value\":\"0x1c5d429b24c00\"},{\"blockHash\":\"0xe25f74c9969f23a7b948f857b795297954c23d97b5faeeb1ed37b3de56374bf8\",\"blockNumber\":\"0xcc1ce\",\"chainId\":null,\"condition\":null,\"creates\":null,\"from\":\"0x12be4a5811db261cf72a69a7f6ef5d9268c0c96d\",\"gas\":\"0x3796e\",\"gasPrice\":\"0x77359400\",\"hash\":\"0x6402a0e1bb7b7815b4b220ccd00f3aec1bdfc6ab84049959f76b1867b84429d7\",\"input\":\"0x53656e74206f6e2031353138313034383633373035\",\"nonce\":\"0xc41e\",\"publicKey\":\"0x880715f192c2079a46efd2962769d1499bbfa76eed034c1eaf5c964f3b1d6beff0ec2c9f28db1b867f43a4508d1e96b11d148a20551ee6898dc29eaf744328ed\",\"r\":\"0x6fac8035ec3d7b63f1a1331f455092e04a4af5fbe6168d81c72e3ce3d8b83359\",\"raw\":\"0xf88382c41e84773594008303796e94fc16f79aac8e7fc9aca12ccf868ecbe3d74f0ce488010d7be6d025d0009553656e74206f6e20313531383130343836333730351ca06fac8035ec3d7b63f1a1331f455092e04a4af5fbe6168d81c72e3ce3d8b83359a03178d4c9b0362ee15fe8ee2c1a8377ce79841f210760036acd325d3ee418f769\",\"s\":\"0x3178d4c9b0362ee15fe8ee2c1a8377ce79841f210760036acd325d3ee418f769\",\"standardV\":\"0x1\",\"to\":\"0xfc16f79aac8e7fc9aca12ccf868ecbe3d74f0ce4\",\"transactionIndex\":\"0x10\",\"v\":\"0x1c\",\"value\":\"0x10d7be6d025d000\"},{\"blockHash\":\"0xe25f74c9969f23a7b948f857b795297954c23d97b5faeeb1ed37b3de56374bf8\",\"blockNumber\":\"0xcc1ce\",\"chainId\":null,\"condition\":null,\"creates\":null,\"from\":\"0xfa7636ebc740d7b77aee08cb6502ade2a3455b0e\",\"gas\":\"0x368b0\",\"gasPrice\":\"0x77359400\",\"hash\":\"0xe4f0797cb9ec9a1faa222ddcd8893914d54a68ed970afec0078071e3ff10a04a\",\"input\":\"0x53656e74206f6e2031353138313034383633373539\",\"nonce\":\"0xbf20\",\"publicKey\":\"0x775e9039b5b67f4c524906754f4d9234bc3ee644dbe6b30147de6be8971e250504319b3ac75f75a23debd0c2cfde76fddd8d33db0e77502bbd1204cc02a99f58\",\"r\":\"0xf63e228cf848d031a8c5e334c7f2cf94d58704f21db15ab4474728a1e9c6225f\",\"raw\":\"0xf88182bf208477359400830368b0941669aa5510dc66739ae2a5d32a02c5f896e3da6b863a0bf33e56009553656e74206f6e20313531383130343836333735391ca0f63e228cf848d031a8c5e334c7f2cf94d58704f21db15ab4474728a1e9c6225fa0642cfd273d46ab9003591e64c4d43f7e3298f0002fe777f1c1acc866066ad065\",\"s\":\"0x642cfd273d46ab9003591e64c4d43f7e3298f0002fe777f1c1acc866066ad065\",\"standardV\":\"0x1\",\"to\":\"0x1669aa5510dc66739ae2a5d32a02c5f896e3da6b\",\"transactionIndex\":\"0x11\",\"v\":\"0x1c\",\"value\":\"0x3a0bf33e5600\"},{\"blockHash\":\"0xe25f74c9969f23a7b948f857b795297954c23d97b5faeeb1ed37b3de56374bf8\",\"blockNumber\":\"0xcc1ce\",\"chainId\":null,\"condition\":null,\"creates\":null,\"from\":\"0x377926a193ccbe7f6d8beac88503b309e6eb1750\",\"gas\":\"0x3809d\",\"gasPrice\":\"0x77359400\",\"hash\":\"0x2946cf36ad774310ba6c96056a1fc703da929c75270f5249b16b4a3004d3e111\",\"input\":\"0x53656e74206f6e2031353138313034383633373239\",\"nonce\":\"0xc01d\",\"publicKey\":\"0x1198bea3ddfca745c6d7c1d32a23260fae57f084719efdd2a7e2faf4621f772ef4aafbd192504b48766336a4d9b07cbbd510ce22c3775200c364378267703886\",\"r\":\"0x7a0cf4e0188f8a0c1821445de0f84c500cf2bcd77ed75e6949545e73a53a466d\",\"raw\":\"0xf88182c01d84773594008303809d946452cde08b1f0ed34ba0ee70bbcb474954bd9c0586919c2fa0e8009553656e74206f6e20313531383130343836333732391ca07a0cf4e0188f8a0c1821445de0f84c500cf2bcd77ed75e6949545e73a53a466da020c29a43b4721938d5d284f03f519dd8530bcd43f290f55473f7a15c59e35d5a\",\"s\":\"0x20c29a43b4721938d5d284f03f519dd8530bcd43f290f55473f7a15c59e35d5a\",\"standardV\":\"0x1\",\"to\":\"0x6452cde08b1f0ed34ba0ee70bbcb474954bd9c05\",\"transactionIndex\":\"0x12\",\"v\":\"0x1c\",\"value\":\"0x919c2fa0e800\"},{\"blockHash\":\"0xe25f74c9969f23a7b948f857b795297954c23d97b5faeeb1ed37b3de56374bf8\",\"blockNumber\":\"0xcc1ce\",\"chainId\":null,\"condition\":null,\"creates\":null,\"from\":\"0x7889eb52030dd9a9fb42274e393dc1e3b63183ac\",\"gas\":\"0x3712a\",\"gasPrice\":\"0x77359400\",\"hash\":\"0xbdc6c8984dd89319e58bfb1e21b55c0602ca945e1e0615e1c4af731be4fe136d\",\"input\":\"0x53656e74206f6e2031353138313034383633373237\",\"nonce\":\"0xc14f\",\"publicKey\":\"0x08b94ebe10117ab3b01659e96aa7ab659ee30122d83cdbcae8a65174f01bad7681e796bef5426054f1206eb2879911ad9c9803eb37a971b968a366ccab8cae8d\",\"r\":\"0x6de4a67772f1524aeacdfb005c4853d3edadd797f408fa998197279cac9be1c4\",\"raw\":\"0xf88382c14f84773594008303712a94f1597eceda22365c41ee018151a1c3e87ca67a4b88010d22c568f5b0009553656e74206f6e20313531383130343836333732371ca06de4a67772f1524aeacdfb005c4853d3edadd797f408fa998197279cac9be1c4a077487c9e1ce5b78b87a9a4e5c45043b16f4c0ce935e6d2e4f29e9311dd1c91d7\",\"s\":\"0x77487c9e1ce5b78b87a9a4e5c45043b16f4c0ce935e6d2e4f29e9311dd1c91d7\",\"standardV\":\"0x1\",\"to\":\"0xf1597eceda22365c41ee018151a1c3e87ca67a4b\",\"transactionIndex\":\"0x13\",\"v\":\"0x1c\",\"value\":\"0x10d22c568f5b000\"},{\"blockHash\":\"0xe25f74c9969f23a7b948f857b795297954c23d97b5faeeb1ed37b3de56374bf8\",\"blockNumber\":\"0xcc1ce\",\"chainId\":null,\"condition\":null,\"creates\":null,\"from\":\"0xf17b41b3a8e6ee34613de2f1fac6c9896c5d5359\",\"gas\":\"0x36be6\",\"gasPrice\":\"0x77359400\",\"hash\":\"0x91bebb739a96a34679dbe376b0c272a7dbba7cd27f3288d7ffd8ec1df35fcfe5\",\"input\":\"0x53656e74206f6e2031353138313034383633373630\",\"nonce\":\"0xbde9\",\"publicKey\":\"0xab095b4f14752b2ce70242d2a9ed0289eb17b33cfaad4c39432f36418db9a1919b63bac56bdb010ed37e2728dab8537535766f150df52169b4641440af30e1db\",\"r\":\"0x6641bf60b047c62617bc466a38640b0df61c0f146e8d49855d9e1caed5092255\",\"raw\":\"0xf88282bde9847735940083036be6946b52b769d09a09309e73eacfcb7ce9c1582f2e418702165654da1c009553656e74206f6e20313531383130343836333736301ba06641bf60b047c62617bc466a38640b0df61c0f146e8d49855d9e1caed5092255a024e5d96aa364d68fda54c594d5b5a91ac1634cf9c687e38429992255fe85965d\",\"s\":\"0x24e5d96aa364d68fda54c594d5b5a91ac1634cf9c687e38429992255fe85965d\",\"standardV\":\"0x0\",\"to\":\"0x6b52b769d09a09309e73eacfcb7ce9c1582f2e41\",\"transactionIndex\":\"0x14\",\"v\":\"0x1b\",\"value\":\"0x2165654da1c00\"}],\"transactionsRoot\":\"0x6b2ba891434a7cdef62b1acc18ff973d2f5a905375ff20d88d819b88aab19f44\",\"uncles\":[]},\"id\":15}\n",
      "headers": {
        "Date": "Thu, 08 Feb 2018 15:47:51 GMT",
        "Content-Type": "application/json",
        "Transfer-Encoding": "chunked",
        "Connection": "keep-alive",
        "Set-Cookie": "__cfduid=d93ab991e8764ff8414c8b4cf3e92bca51518104871; expires=Fri, 08-Feb-19 15:47:51 GMT; path=/; domain=.poa.network; HttpOnly; Secure",
        "Expect-CT": "max-age=604800, report-uri=\"https://report-uri.cloudflare.com/cdn-cgi/beacon/expect-ct\"",
        "Server": "cloudflare",
        "CF-RAY": "3e9fbad40f42928e-SJC"
      },
      "status_code": 200,
      "type": "ok"
    }
  }
]