[
  {
    "request": {
      "body": "{\"params\":[\"0x8d2a8\",true],\"method\":\"eth_getBlockByNumber\",\"jsonrpc\":\"2.0\",\"id\":3}",
      "headers": {
        "Content-Type": "application/json"
      },
      "method": "post",
      "options": [],
      "request_body": "",
      "url": "https://sokol.poa.network:443"
    },
    "response": {
      "binary": false,
      "body": "{\"jsonrpc\":\"2.0\",\"result\":{\"author\":\"0x82e4e61e7f5139ff0a4157a5bc687ef42294c248\",\"difficulty\":\"0xfffffffffffffffffffffffffffffffe\",\"extraData\":\"0xd5830108048650617269747986312e32322e31826c69\",\"gasLimit\":\"0x7a1200\",\"gasUsed\":\"0x5208\",\"hash\":\"0x9a57007d79c7643278f990e00ead1438c1435b0af5754f6c1f5c8a91c3235b74\",\"logsBloom\":\"0x00000000000000000000000000000000000000000000000000000000000000000000000000000000000000000000000000000000000000000000000000000000000000000000000000000000000000000000000000000000000000000000000000000000000000000000000000000000000000000000000000000000000000000000000000000000000000000000000000000000000000000000000000000000000000000000000000000000000000000000000000000000000000000000000000000000000000000000000000000000000000000000000000000000000000000000000000000000000000000000000000000000000000000000000000000000\",\"miner\":\"0x82e4e61e7f5139ff0a4157a5bc687ef42294c248\",\"number\":\"0x8d2a8\",\"parentHash\":\"0xe6735536514c7b05246f79db85b7b815bb031fc09d9533720294ce5916a41466\",\"receiptsRoot\":\"0x056b23fbba480696b65fe5a59b8f2148a1299103c4f57df839233af2cf4ca2d2\",\"sealFields\":[\"0x841214b221\",\"0xb8412b4764ad025dcfdd5bf213960c60b9494ade6d3e7290f4b53ef9625c30f1f8c30cac231ec8125a9ca94a80c75552c8f0463b5e7e3cf10d443749cdd17354477c00\"],\"sha3Uncles\":\"0x1dcc4de8dec75d7aab85b567b6ccd41ad312451b948a7413f0a142fd40d49347\",\"signature\":\"2b4764ad025dcfdd5bf213960c60b9494ade6d3e7290f4b53ef9625c30f1f8c30cac231ec8125a9ca94a80c75552c8f0463b5e7e3cf10d443749cdd17354477c00\",\"size\":\"0x2b4\",\"stateRoot\":\"0x90415320006f67d8bddf7d56c93318934dae56024afcdfb8e10b3ce80a1da9d7\",\"step\":\"303346209\",\"timestamp\":\"0x5a677aa5\",\"totalDifficulty\":\"0x8d2a7ffffffffffffffffffffffffede47b37\",\"transactions\":[{\"blockHash\":\"0x9a57007d79c7643278f990e00ead1438c1435b0af5754f6c1f5c8a91c3235b74\",\"blockNumber\":\"0x8d2a8\",\"chainId\":\"0x4d\",\"condition\":null,\"creates\":null,\"from\":\"0x9a4a90e2732f3fa4087b0bb4bf85c76d14833df1\",\"gas\":\"0x7b0c\",\"gasPrice\":\"0x77359400\",\"hash\":\"0x8cea0c5ffdd96a4dada74066f7416a0957dca278d45a1caec439ba68cbf3f4d6\",\"input\":\"0x\",\"nonce\":\"0x9\",\"publicKey\":\"0x7a2899627b1802d1f71e0e5a06416c85b6b96a6fb8d5f574cbcbc3963212a1e2b48a435461e6d2a4f9930e6a92988164e02a5e7f0b4763ca7d524461fcec67dc\",\"r\":\"0xc012855f7e8b552716ca1af2eaaeaee09a3b860179b56bbf7a68ccd31e43f92\",\"raw\":\"0xf86c098477359400827b0c94b7cffe2ac19b9d5705a24cbe14fef5663af905a6880de0b6b3a76400008081bea00c012855f7e8b552716ca1af2eaaeaee09a3b860179b56bbf7a68ccd31e43f92a03b6dcd71513064384b481a339e042236ef50655e96ba6d8354c7f800ebab0c42\",\"s\":\"0x3b6dcd71513064384b481a339e042236ef50655e96ba6d8354c7f800ebab0c42\",\"standardV\":\"0x1\",\"to\":\"0xb7cffe2ac19b9d5705a24cbe14fef5663af905a6\",\"transactionIndex\":\"0x0\",\"v\":\"0xbe\",\"value\":\"0xde0b6b3a7640000\"}],\"transactionsRoot\":\"0x58c9f8e81202d2212ed1a75fb714820ac5f2756d8408ad2750f5cf7450b8204e\",\"uncles\":[]},\"id\":3}\n",
      "headers": {
        "Date": "Tue, 23 Jan 2018 22:46:24 GMT",
        "Content-Type": "application/json",
        "Transfer-Encoding": "chunked",
        "Connection": "keep-alive",
        "Set-Cookie": "__cfduid=d678a1812702d81f56f94de246d58bd931516747584; expires=Wed, 23-Jan-19 22:46:24 GMT; path=/; domain=.poa.network; HttpOnly; Secure",
        "Expect-CT": "max-age=604800, report-uri=\"https://report-uri.cloudflare.com/cdn-cgi/beacon/expect-ct\"",
        "Server": "cloudflare",
        "CF-RAY": "3e1e49f49fcb933c-SJC"
      },
      "status_code": 200,
      "type": "ok"
    }
  }
]