[
  {
    "request": {
      "body": "{\"params\":[\"0x918c1\",true],\"method\":\"eth_getBlockByNumber\",\"jsonrpc\":\"2.0\",\"id\":0}",
      "headers": {
        "Content-Type": "application/json"
      },
      "method": "post",
      "options": [],
      "request_body": "",
      "url": "https://sokol.poa.network:443"
    },
    "response": {
      "binary": false,
      "body": "{\"jsonrpc\":\"2.0\",\"result\":{\"author\":\"0xe8ddc5c7a2d2f0d7a9798459c0104fdf5e987aca\",\"difficulty\":\"0xfffffffffffffffffffffffffffffffd\",\"extraData\":\"0xd5830108048650617269747986312e32322e31826c69\",\"gasLimit\":\"0x7a1200\",\"gasUsed\":\"0x7a1200\",\"hash\":\"0xadbdb56ed4646f087ba33526397ab627d0f4a6a9a3b167e2ad5a34858ca56912\",\"logsBloom\":\"0x00000000000000000000000000000000000000000000000000000000000000000000000000000000000000000000000000000000000000000000000000000000000000000000000000000000000000000000000000000000000000000000000000000000000000000000000000000000000000000000000000000000000000000000000000000000000000000000000000000000000000000000000000000000000000000000000000000000000000000000000000000000000000000000000000000000000000000000000000000000000000000000000000000000000000000000000000000000000000000000000000000000000000000000000000000000\",\"miner\":\"0xe8ddc5c7a2d2f0d7a9798459c0104fdf5e987aca\",\"number\":\"0x918c1\",\"parentHash\":\"0x0ee8ca9dbc473df053c317b8b44ef3210ce6dd43ce95a9ef5c3855daccff2edc\",\"receiptsRoot\":\"0x1e7ea64145066ff4ffc94fc343a77ba4aafe1bf752870c6c37a66c38cf8dd624\",\"sealFields\":[\"0x841215030c\",\"0xb841eea7f72fba66fe7e2c673f45e0700d99e992572575b54f6cf22bdd73936d57a54afc0d1f5d5a752a9cd88687c463a3f29af0c5cd51d27138a7f5ec9b2ba1dc5f00\"],\"sha3Uncles\":\"0x1dcc4de8dec75d7aab85b567b6ccd41ad312451b948a7413f0a142fd40d49347\",\"signature\":\"eea7f72fba66fe7e2c673f45e0700d99e992572575b54f6cf22bdd73936d57a54afc0d1f5d5a752a9cd88687c463a3f29af0c5cd51d27138a7f5ec9b2ba1dc5f00\",\"size\":\"0x2d4\",\"stateRoot\":\"0x3904497f0fa277effc1aa7c322c6d85a2b23c5564eae3fe4d3eb895bcff773ea\",\"step\":\"303366924\",\"timestamp\":\"0x5a690f3c\",\"totalDifficulty\":\"0x918c0ffffffffffffffffffffffffede3e433\",\"transactions\":[{\"blockHash\":\"0xadbdb56ed4646f087ba33526397ab627d0f4a6a9a3b167e2ad5a34858ca56912\",\"blockNumber\":\"0x918c1\",\"chainId\":\"0x4d\",\"condition\":null,\"creates\":null,\"from\":\"0x82e4e61e7f5139ff0a4157a5bc687ef42294c248\",\"gas\":\"0x7a1200\",\"gasPrice\":\"0x3b9aca00\",\"hash\":\"0x1383ccbe8f74c1f0ee74e0558cb4776cfaf35bc9fbe951a6db08335026243a7c\",\"input\":\"0x1003e2d2000000000000000000000000000000000000000000000000000000000000060e\",\"nonce\":\"0x17c\",\"publicKey\":\"0x750f765a7790aa361dde0ff1d4c9dadd0e1c62fe79dee9c3d6b953abe99ce79755568215a2524d0efe0d5a48d8082e86f317434b62964b0c2e3e3446ebe08099\",\"r\":\"0x661d8ed2c9045286d8ef683f7192ae4158dcb1f92572ef6ff65efe2b9b318f97\",\"raw\":\"0xf88b82017c843b9aca00837a120094fdf0769242684f48894b1d0ff68d54c136018e3980a41003e2d2000000000000000000000000000000000000000000000000000000000000060e81bda0661d8ed2c9045286d8ef683f7192ae4158dcb1f92572ef6ff65efe2b9b318f97a07f9977d48f2d8a0294b0e1bd65acc11f84a6d6cf0df3fa74fbd793133274e585\",\"s\":\"0x7f9977d48f2d8a0294b0e1bd65acc11f84a6d6cf0df3fa74fbd793133274e585\",\"standardV\":\"0x0\",\"to\":\"0xfdf0769242684f48894b1d0ff68d54c136018e39\",\"transactionIndex\":\"0x0\",\"v\":\"0xbd\",\"value\":\"0x0\"}],\"transactionsRoot\":\"0x6b90d094d219d6f415ce8a490e13a56f13f5f0501cc0e018150dc64eaceb1b24\",\"uncles\":[]},\"id\":0}\n",
      "headers": {
        "Date": "Thu, 25 Jan 2018 19:07:43 GMT",
        "Content-Type": "application/json",
        "Transfer-Encoding": "chunked",
        "Connection": "keep-alive",
        "Set-Cookie": "__cfduid=d4c42fb0033c832349c1ca857034595f01516907262; expires=Fri, 25-Jan-19 19:07:42 GMT; path=/; domain=.poa.network; HttpOnly; Secure",
        "Expect-CT": "max-age=604800, report-uri=\"https://report-uri.cloudflare.com/cdn-cgi/beacon/expect-ct\"",
        "Server": "cloudflare",
        "CF-RAY": "3e2d84597f3828be-SJC"
      },
      "status_code": 200,
      "type": "ok"
    }
  }
]